{
  "contractName": "Test",
  "abi": [
    {
      "inputs": [],
      "stateMutability": "nonpayable",
      "type": "constructor"
    },
    {
      "anonymous": false,
      "inputs": [
        {
          "indexed": true,
          "internalType": "address",
          "name": "owner",
          "type": "address"
        },
        {
          "indexed": true,
          "internalType": "address",
          "name": "approved",
          "type": "address"
        },
        {
          "indexed": true,
          "internalType": "uint256",
          "name": "tokenId",
          "type": "uint256"
        }
      ],
      "name": "Approval",
      "type": "event"
    },
    {
      "anonymous": false,
      "inputs": [
        {
          "indexed": true,
          "internalType": "address",
          "name": "owner",
          "type": "address"
        },
        {
          "indexed": true,
          "internalType": "address",
          "name": "operator",
          "type": "address"
        },
        {
          "indexed": false,
          "internalType": "bool",
          "name": "approved",
          "type": "bool"
        }
      ],
      "name": "ApprovalForAll",
      "type": "event"
    },
    {
      "anonymous": false,
      "inputs": [
        {
          "indexed": true,
          "internalType": "address",
          "name": "previousOwner",
          "type": "address"
        },
        {
          "indexed": true,
          "internalType": "address",
          "name": "newOwner",
          "type": "address"
        }
      ],
      "name": "OwnershipTransferred",
      "type": "event"
    },
    {
      "anonymous": false,
      "inputs": [
        {
          "indexed": true,
          "internalType": "address",
          "name": "from",
          "type": "address"
        },
        {
          "indexed": true,
          "internalType": "address",
          "name": "to",
          "type": "address"
        },
        {
          "indexed": true,
          "internalType": "uint256",
          "name": "tokenId",
          "type": "uint256"
        }
      ],
      "name": "Transfer",
      "type": "event"
    },
    {
      "inputs": [
        {
          "internalType": "address",
          "name": "to",
          "type": "address"
        },
        {
          "internalType": "uint256",
          "name": "tokenId",
          "type": "uint256"
        }
      ],
      "name": "approve",
      "outputs": [],
      "stateMutability": "nonpayable",
      "type": "function"
    },
    {
      "inputs": [
        {
          "internalType": "address",
          "name": "owner",
          "type": "address"
        }
      ],
      "name": "balanceOf",
      "outputs": [
        {
          "internalType": "uint256",
          "name": "",
          "type": "uint256"
        }
      ],
      "stateMutability": "view",
      "type": "function"
    },
    {
      "inputs": [
        {
          "internalType": "uint256",
          "name": "tokenId",
          "type": "uint256"
        }
      ],
      "name": "getApproved",
      "outputs": [
        {
          "internalType": "address",
          "name": "",
          "type": "address"
        }
      ],
      "stateMutability": "view",
      "type": "function"
    },
    {
      "inputs": [
        {
          "internalType": "address",
          "name": "owner",
          "type": "address"
        },
        {
          "internalType": "address",
          "name": "operator",
          "type": "address"
        }
      ],
      "name": "isApprovedForAll",
      "outputs": [
        {
          "internalType": "bool",
          "name": "",
          "type": "bool"
        }
      ],
      "stateMutability": "view",
      "type": "function"
    },
    {
      "inputs": [],
      "name": "name",
      "outputs": [
        {
          "internalType": "string",
          "name": "",
          "type": "string"
        }
      ],
      "stateMutability": "view",
      "type": "function"
    },
    {
      "inputs": [],
      "name": "owner",
      "outputs": [
        {
          "internalType": "address",
          "name": "",
          "type": "address"
        }
      ],
      "stateMutability": "view",
      "type": "function"
    },
    {
      "inputs": [
        {
          "internalType": "uint256",
          "name": "tokenId",
          "type": "uint256"
        }
      ],
      "name": "ownerOf",
      "outputs": [
        {
          "internalType": "address",
          "name": "",
          "type": "address"
        }
      ],
      "stateMutability": "view",
      "type": "function"
    },
    {
      "inputs": [],
      "name": "renounceOwnership",
      "outputs": [],
      "stateMutability": "nonpayable",
      "type": "function"
    },
    {
      "inputs": [
        {
          "internalType": "address",
          "name": "from",
          "type": "address"
        },
        {
          "internalType": "address",
          "name": "to",
          "type": "address"
        },
        {
          "internalType": "uint256",
          "name": "tokenId",
          "type": "uint256"
        }
      ],
      "name": "safeTransferFrom",
      "outputs": [],
      "stateMutability": "nonpayable",
      "type": "function"
    },
    {
      "inputs": [
        {
          "internalType": "address",
          "name": "from",
          "type": "address"
        },
        {
          "internalType": "address",
          "name": "to",
          "type": "address"
        },
        {
          "internalType": "uint256",
          "name": "tokenId",
          "type": "uint256"
        },
        {
          "internalType": "bytes",
          "name": "_data",
          "type": "bytes"
        }
      ],
      "name": "safeTransferFrom",
      "outputs": [],
      "stateMutability": "nonpayable",
      "type": "function"
    },
    {
      "inputs": [
        {
          "internalType": "address",
          "name": "operator",
          "type": "address"
        },
        {
          "internalType": "bool",
          "name": "approved",
          "type": "bool"
        }
      ],
      "name": "setApprovalForAll",
      "outputs": [],
      "stateMutability": "nonpayable",
      "type": "function"
    },
    {
      "inputs": [],
      "name": "symbol",
      "outputs": [
        {
          "internalType": "string",
          "name": "",
          "type": "string"
        }
      ],
      "stateMutability": "view",
      "type": "function"
    },
    {
      "inputs": [
        {
          "internalType": "uint256",
          "name": "index",
          "type": "uint256"
        }
      ],
      "name": "tokenByIndex",
      "outputs": [
        {
          "internalType": "uint256",
          "name": "",
          "type": "uint256"
        }
      ],
      "stateMutability": "view",
      "type": "function"
    },
    {
      "inputs": [
        {
          "internalType": "address",
          "name": "owner",
          "type": "address"
        },
        {
          "internalType": "uint256",
          "name": "index",
          "type": "uint256"
        }
      ],
      "name": "tokenOfOwnerByIndex",
      "outputs": [
        {
          "internalType": "uint256",
          "name": "",
          "type": "uint256"
        }
      ],
      "stateMutability": "view",
      "type": "function"
    },
    {
      "inputs": [],
      "name": "totalSupply",
      "outputs": [
        {
          "internalType": "uint256",
          "name": "",
          "type": "uint256"
        }
      ],
      "stateMutability": "view",
      "type": "function"
    },
    {
      "inputs": [
        {
          "internalType": "address",
          "name": "from",
          "type": "address"
        },
        {
          "internalType": "address",
          "name": "to",
          "type": "address"
        },
        {
          "internalType": "uint256",
          "name": "tokenId",
          "type": "uint256"
        }
      ],
      "name": "transferFrom",
      "outputs": [],
      "stateMutability": "nonpayable",
      "type": "function"
    },
    {
      "inputs": [
        {
          "internalType": "address",
          "name": "newOwner",
          "type": "address"
        }
      ],
      "name": "transferOwnership",
      "outputs": [],
      "stateMutability": "nonpayable",
      "type": "function"
    },
    {
      "inputs": [
        {
          "internalType": "address",
          "name": "to",
          "type": "address"
        }
      ],
      "name": "safeMint",
      "outputs": [],
      "stateMutability": "nonpayable",
      "type": "function"
    },
    {
      "inputs": [
        {
          "internalType": "uint256",
          "name": "tokenId",
          "type": "uint256"
        }
      ],
      "name": "tokenURI",
      "outputs": [
        {
          "internalType": "string",
          "name": "",
          "type": "string"
        }
      ],
      "stateMutability": "view",
      "type": "function"
    },
    {
      "inputs": [
        {
          "internalType": "bytes4",
          "name": "interfaceId",
          "type": "bytes4"
        }
      ],
      "name": "supportsInterface",
      "outputs": [
        {
          "internalType": "bool",
          "name": "",
          "type": "bool"
        }
      ],
      "stateMutability": "view",
      "type": "function"
    }
  ],
  "bytecode": "0x60806040526040518060400160405280600581526020017f2e6a736f6e000000000000000000000000000000000000000000000000000000815250600b908051906020019062000051929190620001f4565b503480156200005f57600080fd5b506040518060400160405280600881526020017f4d696e74546573740000000000000000000000000000000000000000000000008152506040518060400160405280600481526020017f4d545354000000000000000000000000000000000000000000000000000000008152508160009080519060200190620000e4929190620001f4565b508060019080519060200190620000fd929190620001f4565b50505062000120620001146200012660201b60201c565b6200012e60201b60201c565b62000308565b600033905090565b6000600a60009054906101000a900473ffffffffffffffffffffffffffffffffffffffff16905081600a60006101000a81548173ffffffffffffffffffffffffffffffffffffffff021916908373ffffffffffffffffffffffffffffffffffffffff1602179055508173ffffffffffffffffffffffffffffffffffffffff168173ffffffffffffffffffffffffffffffffffffffff167f8be0079c531659141344cd1fd0a4f28419497f9722a3daafe3b4186f6b6457e060405160405180910390a35050565b8280546200020290620002d3565b90600052602060002090601f01602090048101928262000226576000855562000272565b82601f106200024157805160ff191683800117855562000272565b8280016001018555821562000272579182015b828111156200027157825182559160200191906001019062000254565b5b50905062000281919062000285565b5090565b5b80821115620002a057600081600090555060010162000286565b5090565b7f4e487b7100000000000000000000000000000000000000000000000000000000600052602260045260246000fd5b60006002820490506001821680620002ec57607f821691505b602082108103620003025762000301620002a4565b5b50919050565b61346c80620003186000396000f3fe608060405234801561001057600080fd5b506004361061012c5760003560e01c80636352211e116100ad578063a22cb46511610071578063a22cb46514610343578063b88d4fde1461035f578063c87b56dd1461037b578063e985e9c5146103ab578063f2fde38b146103db5761012c565b80636352211e1461029d57806370a08231146102cd578063715018a6146102fd5780638da5cb5b1461030757806395d89b41146103255761012c565b806323b872dd116100f457806323b872dd146101e95780632f745c591461020557806340d097c31461023557806342842e0e146102515780634f6ccce71461026d5761012c565b806301ffc9a71461013157806306fdde0314610161578063081812fc1461017f578063095ea7b3146101af57806318160ddd146101cb575b600080fd5b61014b600480360381019061014691906120d8565b6103f7565b6040516101589190612120565b60405180910390f35b610169610409565b60405161017691906121d4565b60405180910390f35b6101996004803603810190610194919061222c565b61049b565b6040516101a6919061229a565b60405180910390f35b6101c960048036038101906101c491906122e1565b610520565b005b6101d3610637565b6040516101e09190612330565b60405180910390f35b61020360048036038101906101fe919061234b565b610644565b005b61021f600480360381019061021a91906122e1565b6106a4565b60405161022c9190612330565b60405180910390f35b61024f600480360381019061024a919061239e565b610749565b005b61026b6004803603810190610266919061234b565b6107eb565b005b6102876004803603810190610282919061222c565b61080b565b6040516102949190612330565b60405180910390f35b6102b760048036038101906102b2919061222c565b61087c565b6040516102c4919061229a565b60405180910390f35b6102e760048036038101906102e2919061239e565b61092d565b6040516102f49190612330565b60405180910390f35b6103056109e4565b005b61030f610a6c565b60405161031c919061229a565b60405180910390f35b61032d610a96565b60405161033a91906121d4565b60405180910390f35b61035d600480360381019061035891906123f7565b610b28565b005b6103796004803603810190610374919061256c565b610b3e565b005b6103956004803603810190610390919061222c565b610ba0565b6040516103a291906121d4565b60405180910390f35b6103c560048036038101906103c091906125ef565b610c4a565b6040516103d29190612120565b60405180910390f35b6103f560048036038101906103f0919061239e565b610cde565b005b600061040282610dd5565b9050919050565b6060600080546104189061265e565b80601f01602080910402602001604051908101604052809291908181526020018280546104449061265e565b80156104915780601f1061046657610100808354040283529160200191610491565b820191906000526020600020905b81548152906001019060200180831161047457829003601f168201915b5050505050905090565b60006104a682610e4f565b6104e5576040517f08c379a00000000000000000000000000000000000000000000000000000000081526004016104dc90612701565b60405180910390fd5b6004600083815260200190815260200160002060009054906101000a900473ffffffffffffffffffffffffffffffffffffffff169050919050565b600061052b8261087c565b90508073ffffffffffffffffffffffffffffffffffffffff168373ffffffffffffffffffffffffffffffffffffffff160361059b576040517f08c379a000000000000000000000000000000000000000000000000000000000815260040161059290612793565b60405180910390fd5b8073ffffffffffffffffffffffffffffffffffffffff166105ba610ebb565b73ffffffffffffffffffffffffffffffffffffffff1614806105e957506105e8816105e3610ebb565b610c4a565b5b610628576040517f08c379a000000000000000000000000000000000000000000000000000000000815260040161061f90612825565b60405180910390fd5b6106328383610ec3565b505050565b6000600880549050905090565b61065561064f610ebb565b82610f7c565b610694576040517f08c379a000000000000000000000000000000000000000000000000000000000815260040161068b906128b7565b60405180910390fd5b61069f83838361105a565b505050565b60006106af8361092d565b82106106f0576040517f08c379a00000000000000000000000000000000000000000000000000000000081526004016106e790612949565b60405180910390fd5b600660008473ffffffffffffffffffffffffffffffffffffffff1673ffffffffffffffffffffffffffffffffffffffff168152602001908152602001600020600083815260200190815260200160002054905092915050565b610751610ebb565b73ffffffffffffffffffffffffffffffffffffffff1661076f610a6c565b73ffffffffffffffffffffffffffffffffffffffff16146107c5576040517f08c379a00000000000000000000000000000000000000000000000000000000081526004016107bc906129b5565b60405180910390fd5b60006107d1600c6112c0565b90506107dd600c6112ce565b6107e782826112e4565b5050565b61080683838360405180602001604052806000815250610b3e565b505050565b6000610815610637565b8210610856576040517f08c379a000000000000000000000000000000000000000000000000000000000815260040161084d90612a47565b60405180910390fd5b6008828154811061086a57610869612a67565b5b90600052602060002001549050919050565b6000806002600084815260200190815260200160002060009054906101000a900473ffffffffffffffffffffffffffffffffffffffff169050600073ffffffffffffffffffffffffffffffffffffffff168173ffffffffffffffffffffffffffffffffffffffff1603610924576040517f08c379a000000000000000000000000000000000000000000000000000000000815260040161091b90612b08565b60405180910390fd5b80915050919050565b60008073ffffffffffffffffffffffffffffffffffffffff168273ffffffffffffffffffffffffffffffffffffffff160361099d576040517f08c379a000000000000000000000000000000000000000000000000000000000815260040161099490612b9a565b60405180910390fd5b600360008373ffffffffffffffffffffffffffffffffffffffff1673ffffffffffffffffffffffffffffffffffffffff168152602001908152602001600020549050919050565b6109ec610ebb565b73ffffffffffffffffffffffffffffffffffffffff16610a0a610a6c565b73ffffffffffffffffffffffffffffffffffffffff1614610a60576040517f08c379a0000000000000000000000000000000000000000000000000000000008152600401610a57906129b5565b60405180910390fd5b610a6a6000611302565b565b6000600a60009054906101000a900473ffffffffffffffffffffffffffffffffffffffff16905090565b606060018054610aa59061265e565b80601f0160208091040260200160405190810160405280929190818152602001828054610ad19061265e565b8015610b1e5780601f10610af357610100808354040283529160200191610b1e565b820191906000526020600020905b815481529060010190602001808311610b0157829003601f168201915b5050505050905090565b610b3a610b33610ebb565b83836113c8565b5050565b610b4f610b49610ebb565b83610f7c565b610b8e576040517f08c379a0000000000000000000000000000000000000000000000000000000008152600401610b85906128b7565b60405180910390fd5b610b9a84848484611534565b50505050565b6060610bab82610e4f565b610bea576040517f08c379a0000000000000000000000000000000000000000000000000000000008152600401610be190612c2c565b60405180910390fd5b6000610bf4611590565b90506000815111610c145760405180602001604052806000815250610c42565b80610c1e846115b0565b600b604051602001610c3293929190612d1c565b6040516020818303038152906040525b915050919050565b6000600560008473ffffffffffffffffffffffffffffffffffffffff1673ffffffffffffffffffffffffffffffffffffffff16815260200190815260200160002060008373ffffffffffffffffffffffffffffffffffffffff1673ffffffffffffffffffffffffffffffffffffffff16815260200190815260200160002060009054906101000a900460ff16905092915050565b610ce6610ebb565b73ffffffffffffffffffffffffffffffffffffffff16610d04610a6c565b73ffffffffffffffffffffffffffffffffffffffff1614610d5a576040517f08c379a0000000000000000000000000000000000000000000000000000000008152600401610d51906129b5565b60405180910390fd5b600073ffffffffffffffffffffffffffffffffffffffff168173ffffffffffffffffffffffffffffffffffffffff1603610dc9576040517f08c379a0000000000000000000000000000000000000000000000000000000008152600401610dc090612dbf565b60405180910390fd5b610dd281611302565b50565b60007f780e9d63000000000000000000000000000000000000000000000000000000007bffffffffffffffffffffffffffffffffffffffffffffffffffffffff1916827bffffffffffffffffffffffffffffffffffffffffffffffffffffffff19161480610e485750610e4782611710565b5b9050919050565b60008073ffffffffffffffffffffffffffffffffffffffff166002600084815260200190815260200160002060009054906101000a900473ffffffffffffffffffffffffffffffffffffffff1673ffffffffffffffffffffffffffffffffffffffff1614159050919050565b600033905090565b816004600083815260200190815260200160002060006101000a81548173ffffffffffffffffffffffffffffffffffffffff021916908373ffffffffffffffffffffffffffffffffffffffff160217905550808273ffffffffffffffffffffffffffffffffffffffff16610f368361087c565b73ffffffffffffffffffffffffffffffffffffffff167f8c5be1e5ebec7d5bd14f71427d1e84f3dd0314c0f7b2291e5b200ac8c7c3b92560405160405180910390a45050565b6000610f8782610e4f565b610fc6576040517f08c379a0000000000000000000000000000000000000000000000000000000008152600401610fbd90612e51565b60405180910390fd5b6000610fd18361087c565b90508073ffffffffffffffffffffffffffffffffffffffff168473ffffffffffffffffffffffffffffffffffffffff16148061101357506110128185610c4a565b5b8061105157508373ffffffffffffffffffffffffffffffffffffffff166110398461049b565b73ffffffffffffffffffffffffffffffffffffffff16145b91505092915050565b8273ffffffffffffffffffffffffffffffffffffffff1661107a8261087c565b73ffffffffffffffffffffffffffffffffffffffff16146110d0576040517f08c379a00000000000000000000000000000000000000000000000000000000081526004016110c790612ee3565b60405180910390fd5b600073ffffffffffffffffffffffffffffffffffffffff168273ffffffffffffffffffffffffffffffffffffffff160361113f576040517f08c379a000000000000000000000000000000000000000000000000000000000815260040161113690612f75565b60405180910390fd5b61114a8383836117f2565b611155600082610ec3565b6001600360008573ffffffffffffffffffffffffffffffffffffffff1673ffffffffffffffffffffffffffffffffffffffff16815260200190815260200160002060008282546111a59190612fc4565b925050819055506001600360008473ffffffffffffffffffffffffffffffffffffffff1673ffffffffffffffffffffffffffffffffffffffff16815260200190815260200160002060008282546111fc9190612ff8565b92505081905550816002600083815260200190815260200160002060006101000a81548173ffffffffffffffffffffffffffffffffffffffff021916908373ffffffffffffffffffffffffffffffffffffffff160217905550808273ffffffffffffffffffffffffffffffffffffffff168473ffffffffffffffffffffffffffffffffffffffff167fddf252ad1be2c89b69c2b068fc378daa952ba7f163c4a11628f55a4df523b3ef60405160405180910390a46112bb838383611802565b505050565b600081600001549050919050565b6001816000016000828254019250508190555050565b6112fe828260405180602001604052806000815250611807565b5050565b6000600a60009054906101000a900473ffffffffffffffffffffffffffffffffffffffff16905081600a60006101000a81548173ffffffffffffffffffffffffffffffffffffffff021916908373ffffffffffffffffffffffffffffffffffffffff1602179055508173ffffffffffffffffffffffffffffffffffffffff168173ffffffffffffffffffffffffffffffffffffffff167f8be0079c531659141344cd1fd0a4f28419497f9722a3daafe3b4186f6b6457e060405160405180910390a35050565b8173ffffffffffffffffffffffffffffffffffffffff168373ffffffffffffffffffffffffffffffffffffffff1603611436576040517f08c379a000000000000000000000000000000000000000000000000000000000815260040161142d9061309a565b60405180910390fd5b80600560008573ffffffffffffffffffffffffffffffffffffffff1673ffffffffffffffffffffffffffffffffffffffff16815260200190815260200160002060008473ffffffffffffffffffffffffffffffffffffffff1673ffffffffffffffffffffffffffffffffffffffff16815260200190815260200160002060006101000a81548160ff0219169083151502179055508173ffffffffffffffffffffffffffffffffffffffff168373ffffffffffffffffffffffffffffffffffffffff167f17307eab39ab6107e8899845ad3d59bd9653f200f220920489ca2b5937696c31836040516115279190612120565b60405180910390a3505050565b61153f84848461105a565b61154b84848484611862565b61158a576040517f08c379a00000000000000000000000000000000000000000000000000000000081526004016115819061312c565b60405180910390fd5b50505050565b606060405180606001604052806027815260200161341060279139905090565b6060600082036115f7576040518060400160405280600181526020017f3000000000000000000000000000000000000000000000000000000000000000815250905061170b565b600082905060005b600082146116295780806116129061314c565b915050600a8261162291906131c3565b91506115ff565b60008167ffffffffffffffff81111561164557611644612441565b5b6040519080825280601f01601f1916602001820160405280156116775781602001600182028036833780820191505090505b5090505b60008514611704576001826116909190612fc4565b9150600a8561169f91906131f4565b60306116ab9190612ff8565b60f81b8183815181106116c1576116c0612a67565b5b60200101907effffffffffffffffffffffffffffffffffffffffffffffffffffffffffffff1916908160001a905350600a856116fd91906131c3565b945061167b565b8093505050505b919050565b60007f80ac58cd000000000000000000000000000000000000000000000000000000007bffffffffffffffffffffffffffffffffffffffffffffffffffffffff1916827bffffffffffffffffffffffffffffffffffffffffffffffffffffffff191614806117db57507f5b5e139f000000000000000000000000000000000000000000000000000000007bffffffffffffffffffffffffffffffffffffffffffffffffffffffff1916827bffffffffffffffffffffffffffffffffffffffffffffffffffffffff1916145b806117eb57506117ea826119e9565b5b9050919050565b6117fd838383611a53565b505050565b505050565b6118118383611b65565b61181e6000848484611862565b61185d576040517f08c379a00000000000000000000000000000000000000000000000000000000081526004016118549061312c565b60405180910390fd5b505050565b60006118838473ffffffffffffffffffffffffffffffffffffffff16611d3e565b156119dc578373ffffffffffffffffffffffffffffffffffffffff1663150b7a026118ac610ebb565b8786866040518563ffffffff1660e01b81526004016118ce949392919061327a565b6020604051808303816000875af192505050801561190a57506040513d601f19601f8201168201806040525081019061190791906132db565b60015b61198c573d806000811461193a576040519150601f19603f3d011682016040523d82523d6000602084013e61193f565b606091505b506000815103611984576040517f08c379a000000000000000000000000000000000000000000000000000000000815260040161197b9061312c565b60405180910390fd5b805181602001fd5b63150b7a0260e01b7bffffffffffffffffffffffffffffffffffffffffffffffffffffffff1916817bffffffffffffffffffffffffffffffffffffffffffffffffffffffff1916149150506119e1565b600190505b949350505050565b60007f01ffc9a7000000000000000000000000000000000000000000000000000000007bffffffffffffffffffffffffffffffffffffffffffffffffffffffff1916827bffffffffffffffffffffffffffffffffffffffffffffffffffffffff1916149050919050565b611a5e838383611d61565b600073ffffffffffffffffffffffffffffffffffffffff168373ffffffffffffffffffffffffffffffffffffffff1603611aa057611a9b81611d66565b611adf565b8173ffffffffffffffffffffffffffffffffffffffff168373ffffffffffffffffffffffffffffffffffffffff1614611ade57611add8382611daf565b5b5b600073ffffffffffffffffffffffffffffffffffffffff168273ffffffffffffffffffffffffffffffffffffffff1603611b2157611b1c81611f1c565b611b60565b8273ffffffffffffffffffffffffffffffffffffffff168273ffffffffffffffffffffffffffffffffffffffff1614611b5f57611b5e8282611fed565b5b5b505050565b600073ffffffffffffffffffffffffffffffffffffffff168273ffffffffffffffffffffffffffffffffffffffff1603611bd4576040517f08c379a0000000000000000000000000000000000000000000000000000000008152600401611bcb90613354565b60405180910390fd5b611bdd81610e4f565b15611c1d576040517f08c379a0000000000000000000000000000000000000000000000000000000008152600401611c14906133c0565b60405180910390fd5b611c29600083836117f2565b6001600360008473ffffffffffffffffffffffffffffffffffffffff1673ffffffffffffffffffffffffffffffffffffffff1681526020019081526020016000206000828254611c799190612ff8565b92505081905550816002600083815260200190815260200160002060006101000a81548173ffffffffffffffffffffffffffffffffffffffff021916908373ffffffffffffffffffffffffffffffffffffffff160217905550808273ffffffffffffffffffffffffffffffffffffffff16600073ffffffffffffffffffffffffffffffffffffffff167fddf252ad1be2c89b69c2b068fc378daa952ba7f163c4a11628f55a4df523b3ef60405160405180910390a4611d3a60008383611802565b5050565b6000808273ffffffffffffffffffffffffffffffffffffffff163b119050919050565b505050565b6008805490506009600083815260200190815260200160002081905550600881908060018154018082558091505060019003906000526020600020016000909190919091505550565b60006001611dbc8461092d565b611dc69190612fc4565b9050600060076000848152602001908152602001600020549050818114611eab576000600660008673ffffffffffffffffffffffffffffffffffffffff1673ffffffffffffffffffffffffffffffffffffffff168152602001908152602001600020600084815260200190815260200160002054905080600660008773ffffffffffffffffffffffffffffffffffffffff1673ffffffffffffffffffffffffffffffffffffffff168152602001908152602001600020600084815260200190815260200160002081905550816007600083815260200190815260200160002081905550505b6007600084815260200190815260200160002060009055600660008573ffffffffffffffffffffffffffffffffffffffff1673ffffffffffffffffffffffffffffffffffffffff16815260200190815260200160002060008381526020019081526020016000206000905550505050565b60006001600880549050611f309190612fc4565b9050600060096000848152602001908152602001600020549050600060088381548110611f6057611f5f612a67565b5b906000526020600020015490508060088381548110611f8257611f81612a67565b5b906000526020600020018190555081600960008381526020019081526020016000208190555060096000858152602001908152602001600020600090556008805480611fd157611fd06133e0565b5b6001900381819060005260206000200160009055905550505050565b6000611ff88361092d565b905081600660008573ffffffffffffffffffffffffffffffffffffffff1673ffffffffffffffffffffffffffffffffffffffff168152602001908152602001600020600083815260200190815260200160002081905550806007600084815260200190815260200160002081905550505050565b6000604051905090565b600080fd5b600080fd5b60007fffffffff0000000000000000000000000000000000000000000000000000000082169050919050565b6120b581612080565b81146120c057600080fd5b50565b6000813590506120d2816120ac565b92915050565b6000602082840312156120ee576120ed612076565b5b60006120fc848285016120c3565b91505092915050565b60008115159050919050565b61211a81612105565b82525050565b60006020820190506121356000830184612111565b92915050565b600081519050919050565b600082825260208201905092915050565b60005b8381101561217557808201518184015260208101905061215a565b83811115612184576000848401525b50505050565b6000601f19601f8301169050919050565b60006121a68261213b565b6121b08185612146565b93506121c0818560208601612157565b6121c98161218a565b840191505092915050565b600060208201905081810360008301526121ee818461219b565b905092915050565b6000819050919050565b612209816121f6565b811461221457600080fd5b50565b60008135905061222681612200565b92915050565b60006020828403121561224257612241612076565b5b600061225084828501612217565b91505092915050565b600073ffffffffffffffffffffffffffffffffffffffff82169050919050565b600061228482612259565b9050919050565b61229481612279565b82525050565b60006020820190506122af600083018461228b565b92915050565b6122be81612279565b81146122c957600080fd5b50565b6000813590506122db816122b5565b92915050565b600080604083850312156122f8576122f7612076565b5b6000612306858286016122cc565b925050602061231785828601612217565b9150509250929050565b61232a816121f6565b82525050565b60006020820190506123456000830184612321565b92915050565b60008060006060848603121561236457612363612076565b5b6000612372868287016122cc565b9350506020612383868287016122cc565b925050604061239486828701612217565b9150509250925092565b6000602082840312156123b4576123b3612076565b5b60006123c2848285016122cc565b91505092915050565b6123d481612105565b81146123df57600080fd5b50565b6000813590506123f1816123cb565b92915050565b6000806040838503121561240e5761240d612076565b5b600061241c858286016122cc565b925050602061242d858286016123e2565b9150509250929050565b600080fd5b600080fd5b7f4e487b7100000000000000000000000000000000000000000000000000000000600052604160045260246000fd5b6124798261218a565b810181811067ffffffffffffffff8211171561249857612497612441565b5b80604052505050565b60006124ab61206c565b90506124b78282612470565b919050565b600067ffffffffffffffff8211156124d7576124d6612441565b5b6124e08261218a565b9050602081019050919050565b82818337600083830152505050565b600061250f61250a846124bc565b6124a1565b90508281526020810184848401111561252b5761252a61243c565b5b6125368482856124ed565b509392505050565b600082601f83011261255357612552612437565b5b81356125638482602086016124fc565b91505092915050565b6000806000806080858703121561258657612585612076565b5b6000612594878288016122cc565b94505060206125a5878288016122cc565b93505060406125b687828801612217565b925050606085013567ffffffffffffffff8111156125d7576125d661207b565b5b6125e38782880161253e565b91505092959194509250565b6000806040838503121561260657612605612076565b5b6000612614858286016122cc565b9250506020612625858286016122cc565b9150509250929050565b7f4e487b7100000000000000000000000000000000000000000000000000000000600052602260045260246000fd5b6000600282049050600182168061267657607f821691505b6020821081036126895761268861262f565b5b50919050565b7f4552433732313a20617070726f76656420717565727920666f72206e6f6e657860008201527f697374656e7420746f6b656e0000000000000000000000000000000000000000602082015250565b60006126eb602c83612146565b91506126f68261268f565b604082019050919050565b6000602082019050818103600083015261271a816126de565b9050919050565b7f4552433732313a20617070726f76616c20746f2063757272656e74206f776e6560008201527f7200000000000000000000000000000000000000000000000000000000000000602082015250565b600061277d602183612146565b915061278882612721565b604082019050919050565b600060208201905081810360008301526127ac81612770565b9050919050565b7f4552433732313a20617070726f76652063616c6c6572206973206e6f74206f7760008201527f6e6572206e6f7220617070726f76656420666f7220616c6c0000000000000000602082015250565b600061280f603883612146565b915061281a826127b3565b604082019050919050565b6000602082019050818103600083015261283e81612802565b9050919050565b7f4552433732313a207472616e736665722063616c6c6572206973206e6f74206f60008201527f776e6572206e6f7220617070726f766564000000000000000000000000000000602082015250565b60006128a1603183612146565b91506128ac82612845565b604082019050919050565b600060208201905081810360008301526128d081612894565b9050919050565b7f455243373231456e756d657261626c653a206f776e657220696e646578206f7560008201527f74206f6620626f756e6473000000000000000000000000000000000000000000602082015250565b6000612933602b83612146565b915061293e826128d7565b604082019050919050565b6000602082019050818103600083015261296281612926565b9050919050565b7f4f776e61626c653a2063616c6c6572206973206e6f7420746865206f776e6572600082015250565b600061299f602083612146565b91506129aa82612969565b602082019050919050565b600060208201905081810360008301526129ce81612992565b9050919050565b7f455243373231456e756d657261626c653a20676c6f62616c20696e646578206f60008201527f7574206f6620626f756e64730000000000000000000000000000000000000000602082015250565b6000612a31602c83612146565b9150612a3c826129d5565b604082019050919050565b60006020820190508181036000830152612a6081612a24565b9050919050565b7f4e487b7100000000000000000000000000000000000000000000000000000000600052603260045260246000fd5b7f4552433732313a206f776e657220717565727920666f72206e6f6e657869737460008201527f656e7420746f6b656e0000000000000000000000000000000000000000000000602082015250565b6000612af2602983612146565b9150612afd82612a96565b604082019050919050565b60006020820190508181036000830152612b2181612ae5565b9050919050565b7f4552433732313a2062616c616e636520717565727920666f7220746865207a6560008201527f726f206164647265737300000000000000000000000000000000000000000000602082015250565b6000612b84602a83612146565b9150612b8f82612b28565b604082019050919050565b60006020820190508181036000830152612bb381612b77565b9050919050565b7f4552433732314d657461646174613a2055524920717565727920666f72206e6f60008201527f6e6578697374656e7420746f6b656e0000000000000000000000000000000000602082015250565b6000612c16602f83612146565b9150612c2182612bba565b604082019050919050565b60006020820190508181036000830152612c4581612c09565b9050919050565b600081905092915050565b6000612c628261213b565b612c6c8185612c4c565b9350612c7c818560208601612157565b80840191505092915050565b60008190508160005260206000209050919050565b60008154612caa8161265e565b612cb48186612c4c565b94506001821660008114612ccf5760018114612ce057612d13565b60ff19831686528186019350612d13565b612ce985612c88565b60005b83811015612d0b57815481890152600182019150602081019050612cec565b838801955050505b50505092915050565b6000612d288286612c57565b9150612d348285612c57565b9150612d408284612c9d565b9150819050949350505050565b7f4f776e61626c653a206e6577206f776e657220697320746865207a65726f206160008201527f6464726573730000000000000000000000000000000000000000000000000000602082015250565b6000612da9602683612146565b9150612db482612d4d565b604082019050919050565b60006020820190508181036000830152612dd881612d9c565b9050919050565b7f4552433732313a206f70657261746f7220717565727920666f72206e6f6e657860008201527f697374656e7420746f6b656e0000000000000000000000000000000000000000602082015250565b6000612e3b602c83612146565b9150612e4682612ddf565b604082019050919050565b60006020820190508181036000830152612e6a81612e2e565b9050919050565b7f4552433732313a207472616e736665722066726f6d20696e636f72726563742060008201527f6f776e6572000000000000000000000000000000000000000000000000000000602082015250565b6000612ecd602583612146565b9150612ed882612e71565b604082019050919050565b60006020820190508181036000830152612efc81612ec0565b9050919050565b7f4552433732313a207472616e7366657220746f20746865207a65726f2061646460008201527f7265737300000000000000000000000000000000000000000000000000000000602082015250565b6000612f5f602483612146565b9150612f6a82612f03565b604082019050919050565b60006020820190508181036000830152612f8e81612f52565b9050919050565b7f4e487b7100000000000000000000000000000000000000000000000000000000600052601160045260246000fd5b6000612fcf826121f6565b9150612fda836121f6565b925082821015612fed57612fec612f95565b5b828203905092915050565b6000613003826121f6565b915061300e836121f6565b9250827fffffffffffffffffffffffffffffffffffffffffffffffffffffffffffffffff0382111561304357613042612f95565b5b828201905092915050565b7f4552433732313a20617070726f766520746f2063616c6c657200000000000000600082015250565b6000613084601983612146565b915061308f8261304e565b602082019050919050565b600060208201905081810360008301526130b381613077565b9050919050565b7f4552433732313a207472616e7366657220746f206e6f6e20455243373231526560008201527f63656976657220696d706c656d656e7465720000000000000000000000000000602082015250565b6000613116603283612146565b9150613121826130ba565b604082019050919050565b6000602082019050818103600083015261314581613109565b9050919050565b6000613157826121f6565b91507fffffffffffffffffffffffffffffffffffffffffffffffffffffffffffffffff820361318957613188612f95565b5b600182019050919050565b7f4e487b7100000000000000000000000000000000000000000000000000000000600052601260045260246000fd5b60006131ce826121f6565b91506131d9836121f6565b9250826131e9576131e8613194565b5b828204905092915050565b60006131ff826121f6565b915061320a836121f6565b92508261321a57613219613194565b5b828206905092915050565b600081519050919050565b600082825260208201905092915050565b600061324c82613225565b6132568185613230565b9350613266818560208601612157565b61326f8161218a565b840191505092915050565b600060808201905061328f600083018761228b565b61329c602083018661228b565b6132a96040830185612321565b81810360608301526132bb8184613241565b905095945050505050565b6000815190506132d5816120ac565b92915050565b6000602082840312156132f1576132f0612076565b5b60006132ff848285016132c6565b91505092915050565b7f4552433732313a206d696e7420746f20746865207a65726f2061646472657373600082015250565b600061333e602083612146565b915061334982613308565b602082019050919050565b6000602082019050818103600083015261336d81613331565b9050919050565b7f4552433732313a20746f6b656e20616c7265616479206d696e74656400000000600082015250565b60006133aa601c83612146565b91506133b582613374565b602082019050919050565b600060208201905081810360008301526133d98161339d565b9050919050565b7f4e487b7100000000000000000000000000000000000000000000000000000000600052603160045260246000fdfe68747470733a2f2f697066732e696f2f697066732f3c6d795f70726f6a6563745f686173683e2fa2646970667358221220cacd0cfa060b498c7500a01c3dfc2e6ee4e658f2cae484fc1932045a3b2b07cd64736f6c634300080e0033",
  "immutableReferences": {},
  "source": "// SPDX-License-Identifier: MIT\r\npragma solidity ^0.8.4;\r\n\r\nimport \"@openzeppelin/contracts/token/ERC721/ERC721.sol\";\r\nimport \"@openzeppelin/contracts/token/ERC721/extensions/ERC721Enumerable.sol\";\r\nimport \"@openzeppelin/contracts/access/Ownable.sol\";\r\nimport \"@openzeppelin/contracts/utils/Counters.sol\";\r\nimport \"@openzeppelin/contracts/utils/Strings.sol\";\r\n\r\n\r\n\r\ncontract Test is ERC721, ERC721Enumerable, Ownable {\r\n    using Counters for Counters.Counter;\r\n    using Strings for uint256;\r\n    string private baseExtension = '.json';\r\n\r\n    Counters.Counter private _tokenIdCounter;\r\n\r\n    constructor() ERC721(\"MintTest\", \"MTST\") {}\r\n\r\n    function _baseURI() internal pure override returns (string memory) {\r\n        return \"https://ipfs.io/ipfs/<my_project_hash>/\";\r\n    }\r\n\r\n    function safeMint(address to) public onlyOwner {\r\n        uint256 tokenId = _tokenIdCounter.current();\r\n        _tokenIdCounter.increment();\r\n        _safeMint(to, tokenId);\r\n    }\r\n\r\n\r\n    function tokenURI(uint256 tokenId)\r\n        public\r\n        view\r\n        virtual\r\n        override\r\n        returns (string memory)\r\n    {\r\n        require(\r\n            _exists(tokenId),\r\n            \"ERC721Metadata: URI query for nonexistent token\"\r\n        );\r\n\r\n        string memory currentBaseURI = _baseURI();\r\n        return\r\n            bytes(currentBaseURI).length > 0\r\n                ? string(\r\n                    abi.encodePacked(\r\n                        currentBaseURI,\r\n                        tokenId.toString(),\r\n                        baseExtension\r\n                    )\r\n                )\r\n                : \"\";\r\n    }\r\n\r\n    // The following functions are overrides required by Solidity.\r\n\r\n    function _beforeTokenTransfer(\r\n        address from,\r\n        address to,\r\n        uint256 tokenId\r\n    ) internal override(ERC721, ERC721Enumerable) {\r\n        super._beforeTokenTransfer(from, to, tokenId);\r\n    }\r\n\r\n    function supportsInterface(bytes4 interfaceId)\r\n        public\r\n        view\r\n        override(ERC721, ERC721Enumerable)\r\n        returns (bool)\r\n    {\r\n        return super.supportsInterface(interfaceId);\r\n    }\r\n}\r\n",
  "sourcePath": "C:\\Users\\Gunner\\Desktop\\NFT\\src\\smart-contracts\\contracts\\Test.sol",
  "compiler": {
    "name": "solc",
    "version": "0.8.14+commit.80d49f37.Emscripten.clang"
  },
  "schemaVersion": "3.4.7",
  "updatedAt": "2022-06-13T19:04:26.450Z",
  "devdoc": {
    "kind": "dev",
    "methods": {
      "approve(address,uint256)": {
        "details": "See {IERC721-approve}."
      },
      "balanceOf(address)": {
        "details": "See {IERC721-balanceOf}."
      },
      "getApproved(uint256)": {
        "details": "See {IERC721-getApproved}."
      },
      "isApprovedForAll(address,address)": {
        "details": "See {IERC721-isApprovedForAll}."
      },
      "name()": {
        "details": "See {IERC721Metadata-name}."
      },
      "owner()": {
        "details": "Returns the address of the current owner."
      },
      "ownerOf(uint256)": {
        "details": "See {IERC721-ownerOf}."
      },
      "renounceOwnership()": {
        "details": "Leaves the contract without owner. It will not be possible to call `onlyOwner` functions anymore. Can only be called by the current owner. NOTE: Renouncing ownership will leave the contract without an owner, thereby removing any functionality that is only available to the owner."
      },
      "safeTransferFrom(address,address,uint256)": {
        "details": "See {IERC721-safeTransferFrom}."
      },
      "safeTransferFrom(address,address,uint256,bytes)": {
        "details": "See {IERC721-safeTransferFrom}."
      },
      "setApprovalForAll(address,bool)": {
        "details": "See {IERC721-setApprovalForAll}."
      },
      "symbol()": {
        "details": "See {IERC721Metadata-symbol}."
      },
      "tokenByIndex(uint256)": {
        "details": "See {IERC721Enumerable-tokenByIndex}."
      },
      "tokenOfOwnerByIndex(address,uint256)": {
        "details": "See {IERC721Enumerable-tokenOfOwnerByIndex}."
      },
      "tokenURI(uint256)": {
        "details": "See {IERC721Metadata-tokenURI}."
      },
      "totalSupply()": {
        "details": "See {IERC721Enumerable-totalSupply}."
      },
      "transferFrom(address,address,uint256)": {
        "details": "See {IERC721-transferFrom}."
      },
      "transferOwnership(address)": {
        "details": "Transfers ownership of the contract to a new account (`newOwner`). Can only be called by the current owner."
      }
    },
    "version": 1
  },
  "userdoc": {
    "kind": "user",
    "methods": {},
    "version": 1
  }
}